:100000000C9434000C943E000C943E000C943E0082
:100010000C943E000C943E000C943E000C943E0068
:100020000C943E000C943E000C943E000C943E0058
:100030000C943E000C943E000C943E000C943E0048
:100040000C943E000C943E000C943E000C943E0038
:100050000C943E000C943E000C943E000C943E0028
:100060000C943E000C943E0011241FBECFEFD8E04C
:10007000DEBFCDBF0E945E000C9480000C94000097
:1000800088E18093C10086E88093C2001092C0008E
:100090001092C5008FEC8093C4000895E0ECF0E06E
:1000A000908195FFFDCF8093C6000895E0ECF0E0CD
:1000B00080818823ECF78091C60008958FEF84B982
:1000C0000E944000CFEF0E945600882371F00E94EA
:1000D00056000E944E00C5B92FEF83ED90E32150EA
:1000E00080409040E1F700C0000015B82FEF83ED8D
:1000F00090E3215080409040E1F700C00000E3CF42
:04010000F894FFCFA1
:00000001FF
